{
  "_format": "hh-sol-artifact-1",
  "contractName": "CryptoDevs",
  "sourceName": "contracts/CryptoDevs.sol",
  "abi": [
    {
      "inputs": [
        {
          "internalType": "string",
          "name": "baseURI",
          "type": "string"
        },
        {
          "internalType": "address",
          "name": "whitelistContract",
          "type": "address"
        }
      ],
      "stateMutability": "nonpayable",
      "type": "constructor"
    },
    {
      "anonymous": false,
      "inputs": [
        {
          "indexed": true,
          "internalType": "address",
          "name": "owner",
          "type": "address"
        },
        {
          "indexed": true,
          "internalType": "address",
          "name": "approved",
          "type": "address"
        },
        {
          "indexed": true,
          "internalType": "uint256",
          "name": "tokenId",
          "type": "uint256"
        }
      ],
      "name": "Approval",
      "type": "event"
    },
    {
      "anonymous": false,
      "inputs": [
        {
          "indexed": true,
          "internalType": "address",
          "name": "owner",
          "type": "address"
        },
        {
          "indexed": true,
          "internalType": "address",
          "name": "operator",
          "type": "address"
        },
        {
          "indexed": false,
          "internalType": "bool",
          "name": "approved",
          "type": "bool"
        }
      ],
      "name": "ApprovalForAll",
      "type": "event"
    },
    {
      "anonymous": false,
      "inputs": [
        {
          "indexed": true,
          "internalType": "address",
          "name": "previousOwner",
          "type": "address"
        },
        {
          "indexed": true,
          "internalType": "address",
          "name": "newOwner",
          "type": "address"
        }
      ],
      "name": "OwnershipTransferred",
      "type": "event"
    },
    {
      "anonymous": false,
      "inputs": [
        {
          "indexed": true,
          "internalType": "address",
          "name": "from",
          "type": "address"
        },
        {
          "indexed": true,
          "internalType": "address",
          "name": "to",
          "type": "address"
        },
        {
          "indexed": true,
          "internalType": "uint256",
          "name": "tokenId",
          "type": "uint256"
        }
      ],
      "name": "Transfer",
      "type": "event"
    },
    {
      "stateMutability": "payable",
      "type": "fallback"
    },
    {
      "inputs": [],
      "name": "_paused",
      "outputs": [
        {
          "internalType": "bool",
          "name": "",
          "type": "bool"
        }
      ],
      "stateMutability": "view",
      "type": "function"
    },
    {
      "inputs": [],
      "name": "_price",
      "outputs": [
        {
          "internalType": "uint256",
          "name": "",
          "type": "uint256"
        }
      ],
      "stateMutability": "view",
      "type": "function"
    },
    {
      "inputs": [
        {
          "internalType": "address",
          "name": "to",
          "type": "address"
        },
        {
          "internalType": "uint256",
          "name": "tokenId",
          "type": "uint256"
        }
      ],
      "name": "approve",
      "outputs": [],
      "stateMutability": "nonpayable",
      "type": "function"
    },
    {
      "inputs": [
        {
          "internalType": "address",
          "name": "owner",
          "type": "address"
        }
      ],
      "name": "balanceOf",
      "outputs": [
        {
          "internalType": "uint256",
          "name": "",
          "type": "uint256"
        }
      ],
      "stateMutability": "view",
      "type": "function"
    },
    {
      "inputs": [
        {
          "internalType": "uint256",
          "name": "tokenId",
          "type": "uint256"
        }
      ],
      "name": "getApproved",
      "outputs": [
        {
          "internalType": "address",
          "name": "",
          "type": "address"
        }
      ],
      "stateMutability": "view",
      "type": "function"
    },
    {
      "inputs": [
        {
          "internalType": "address",
          "name": "owner",
          "type": "address"
        },
        {
          "internalType": "address",
          "name": "operator",
          "type": "address"
        }
      ],
      "name": "isApprovedForAll",
      "outputs": [
        {
          "internalType": "bool",
          "name": "",
          "type": "bool"
        }
      ],
      "stateMutability": "view",
      "type": "function"
    },
    {
      "inputs": [],
      "name": "maxTokenIds",
      "outputs": [
        {
          "internalType": "uint256",
          "name": "",
          "type": "uint256"
        }
      ],
      "stateMutability": "view",
      "type": "function"
    },
    {
      "inputs": [],
      "name": "mint",
      "outputs": [],
      "stateMutability": "payable",
      "type": "function"
    },
    {
      "inputs": [],
      "name": "name",
      "outputs": [
        {
          "internalType": "string",
          "name": "",
          "type": "string"
        }
      ],
      "stateMutability": "view",
      "type": "function"
    },
    {
      "inputs": [],
      "name": "owner",
      "outputs": [
        {
          "internalType": "address",
          "name": "",
          "type": "address"
        }
      ],
      "stateMutability": "view",
      "type": "function"
    },
    {
      "inputs": [
        {
          "internalType": "uint256",
          "name": "tokenId",
          "type": "uint256"
        }
      ],
      "name": "ownerOf",
      "outputs": [
        {
          "internalType": "address",
          "name": "",
          "type": "address"
        }
      ],
      "stateMutability": "view",
      "type": "function"
    },
    {
      "inputs": [],
      "name": "persaleMint",
      "outputs": [],
      "stateMutability": "payable",
      "type": "function"
    },
    {
      "inputs": [],
      "name": "preSaleEnded",
      "outputs": [
        {
          "internalType": "uint256",
          "name": "",
          "type": "uint256"
        }
      ],
      "stateMutability": "view",
      "type": "function"
    },
    {
      "inputs": [],
      "name": "presaleStarted",
      "outputs": [
        {
          "internalType": "bool",
          "name": "",
          "type": "bool"
        }
      ],
      "stateMutability": "view",
      "type": "function"
    },
    {
      "inputs": [],
      "name": "renounceOwnership",
      "outputs": [],
      "stateMutability": "nonpayable",
      "type": "function"
    },
    {
      "inputs": [
        {
          "internalType": "address",
          "name": "from",
          "type": "address"
        },
        {
          "internalType": "address",
          "name": "to",
          "type": "address"
        },
        {
          "internalType": "uint256",
          "name": "tokenId",
          "type": "uint256"
        }
      ],
      "name": "safeTransferFrom",
      "outputs": [],
      "stateMutability": "nonpayable",
      "type": "function"
    },
    {
      "inputs": [
        {
          "internalType": "address",
          "name": "from",
          "type": "address"
        },
        {
          "internalType": "address",
          "name": "to",
          "type": "address"
        },
        {
          "internalType": "uint256",
          "name": "tokenId",
          "type": "uint256"
        },
        {
          "internalType": "bytes",
          "name": "_data",
          "type": "bytes"
        }
      ],
      "name": "safeTransferFrom",
      "outputs": [],
      "stateMutability": "nonpayable",
      "type": "function"
    },
    {
      "inputs": [
        {
          "internalType": "address",
          "name": "operator",
          "type": "address"
        },
        {
          "internalType": "bool",
          "name": "approved",
          "type": "bool"
        }
      ],
      "name": "setApprovalForAll",
      "outputs": [],
      "stateMutability": "nonpayable",
      "type": "function"
    },
    {
      "inputs": [
        {
          "internalType": "bool",
          "name": "val",
          "type": "bool"
        }
      ],
      "name": "setPaused",
      "outputs": [],
      "stateMutability": "nonpayable",
      "type": "function"
    },
    {
      "inputs": [],
      "name": "startPresale",
      "outputs": [],
      "stateMutability": "nonpayable",
      "type": "function"
    },
    {
      "inputs": [
        {
          "internalType": "bytes4",
          "name": "interfaceId",
          "type": "bytes4"
        }
      ],
      "name": "supportsInterface",
      "outputs": [
        {
          "internalType": "bool",
          "name": "",
          "type": "bool"
        }
      ],
      "stateMutability": "view",
      "type": "function"
    },
    {
      "inputs": [],
      "name": "symbol",
      "outputs": [
        {
          "internalType": "string",
          "name": "",
          "type": "string"
        }
      ],
      "stateMutability": "view",
      "type": "function"
    },
    {
      "inputs": [
        {
          "internalType": "uint256",
          "name": "index",
          "type": "uint256"
        }
      ],
      "name": "tokenByIndex",
      "outputs": [
        {
          "internalType": "uint256",
          "name": "",
          "type": "uint256"
        }
      ],
      "stateMutability": "view",
      "type": "function"
    },
    {
      "inputs": [],
      "name": "tokenIds",
      "outputs": [
        {
          "internalType": "uint256",
          "name": "",
          "type": "uint256"
        }
      ],
      "stateMutability": "view",
      "type": "function"
    },
    {
      "inputs": [
        {
          "internalType": "address",
          "name": "owner",
          "type": "address"
        },
        {
          "internalType": "uint256",
          "name": "index",
          "type": "uint256"
        }
      ],
      "name": "tokenOfOwnerByIndex",
      "outputs": [
        {
          "internalType": "uint256",
          "name": "",
          "type": "uint256"
        }
      ],
      "stateMutability": "view",
      "type": "function"
    },
    {
      "inputs": [
        {
          "internalType": "uint256",
          "name": "tokenId",
          "type": "uint256"
        }
      ],
      "name": "tokenURI",
      "outputs": [
        {
          "internalType": "string",
          "name": "",
          "type": "string"
        }
      ],
      "stateMutability": "view",
      "type": "function"
    },
    {
      "inputs": [],
      "name": "totalSupply",
      "outputs": [
        {
          "internalType": "uint256",
          "name": "",
          "type": "uint256"
        }
      ],
      "stateMutability": "view",
      "type": "function"
    },
    {
      "inputs": [
        {
          "internalType": "address",
          "name": "from",
          "type": "address"
        },
        {
          "internalType": "address",
          "name": "to",
          "type": "address"
        },
        {
          "internalType": "uint256",
          "name": "tokenId",
          "type": "uint256"
        }
      ],
      "name": "transferFrom",
      "outputs": [],
      "stateMutability": "nonpayable",
      "type": "function"
    },
    {
      "inputs": [
        {
          "internalType": "address",
          "name": "newOwner",
          "type": "address"
        }
      ],
      "name": "transferOwnership",
      "outputs": [],
      "stateMutability": "nonpayable",
      "type": "function"
    },
    {
      "inputs": [],
      "name": "withdraw",
      "outputs": [],
      "stateMutability": "nonpayable",
      "type": "function"
    },
    {
      "stateMutability": "payable",
      "type": "receive"
    }
  ],
  "bytecode": "0x60806040526014600e55662386f26fc100006010553480156200002157600080fd5b506040516200460338038062004603833981810160405281019062000047919062000370565b6040518060400160405280600a81526020017f43727970746f44657673000000000000000000000000000000000000000000008152506040518060400160405280600281526020017f43440000000000000000000000000000000000000000000000000000000000008152508160009080519060200190620000cb92919062000237565b508060019080519060200190620000e492919062000237565b50505062000107620000fb6200016960201b60201c565b6200017160201b60201c565b81600b90805190602001906200011f92919062000237565b5080600c60006101000a81548173ffffffffffffffffffffffffffffffffffffffff021916908373ffffffffffffffffffffffffffffffffffffffff160217905550505062000588565b600033905090565b6000600a60009054906101000a900473ffffffffffffffffffffffffffffffffffffffff16905081600a60006101000a81548173ffffffffffffffffffffffffffffffffffffffff021916908373ffffffffffffffffffffffffffffffffffffffff1602179055508173ffffffffffffffffffffffffffffffffffffffff168173ffffffffffffffffffffffffffffffffffffffff167f8be0079c531659141344cd1fd0a4f28419497f9722a3daafe3b4186f6b6457e060405160405180910390a35050565b828054620002459062000493565b90600052602060002090601f016020900481019282620002695760008555620002b5565b82601f106200028457805160ff1916838001178555620002b5565b82800160010185558215620002b5579182015b82811115620002b457825182559160200191906001019062000297565b5b509050620002c49190620002c8565b5090565b5b80821115620002e3576000816000905550600101620002c9565b5090565b6000620002fe620002f884620003f3565b620003ca565b9050828152602081018484840111156200031757600080fd5b620003248482856200045d565b509392505050565b6000815190506200033d816200056e565b92915050565b600082601f8301126200035557600080fd5b815162000367848260208601620002e7565b91505092915050565b600080604083850312156200038457600080fd5b600083015167ffffffffffffffff8111156200039f57600080fd5b620003ad8582860162000343565b9250506020620003c0858286016200032c565b9150509250929050565b6000620003d6620003e9565b9050620003e48282620004c9565b919050565b6000604051905090565b600067ffffffffffffffff8211156200041157620004106200052e565b5b6200041c826200055d565b9050602081019050919050565b600062000436826200043d565b9050919050565b600073ffffffffffffffffffffffffffffffffffffffff82169050919050565b60005b838110156200047d57808201518184015260208101905062000460565b838111156200048d576000848401525b50505050565b60006002820490506001821680620004ac57607f821691505b60208210811415620004c357620004c2620004ff565b5b50919050565b620004d4826200055d565b810181811067ffffffffffffffff82111715620004f657620004f56200052e565b5b80604052505050565b7f4e487b7100000000000000000000000000000000000000000000000000000000600052602260045260246000fd5b7f4e487b7100000000000000000000000000000000000000000000000000000000600052604160045260246000fd5b6000601f19601f8301169050919050565b620005798162000429565b81146200058557600080fd5b50565b61406b80620005986000396000f3fe6080604052600436106101d15760003560e01c80634f6ccce7116100f757806395d89b4111610095578063c87b56dd11610064578063c87b56dd1461063b578063e985e9c514610678578063f2fde38b146106b5578063f7af676d146106de576101d8565b806395d89b4114610593578063a0426fb2146105be578063a22cb465146105e9578063b88d4fde14610612576101d8565b806370a08231116100d157806370a08231146104e9578063714cff5614610526578063715018a6146105515780638da5cb5b14610568576101d8565b80634f6ccce7146104445780635f769621146104815780636352211e146104ac576101d8565b806316c38b3c1161016f57806323b872dd1161013e57806323b872dd1461039e5780632f745c59146103c75780633ccfd60b1461040457806342842e0e1461041b576101d8565b806316c38b3c146102f457806316c61ccc1461031d57806318160ddd14610348578063235b6ea114610373576101d8565b806306fdde03116101ab57806306fdde0314610259578063081812fc14610284578063095ea7b3146102c15780631249c58b146102ea576101d8565b806301ffc9a7146101da57806304549d6f1461021757806304c98b2b14610242576101d8565b366101d857005b005b3480156101e657600080fd5b5061020160048036038101906101fc9190612d11565b6106e8565b60405161020e919061328a565b60405180910390f35b34801561022357600080fd5b5061022c610762565b604051610239919061328a565b60405180910390f35b34801561024e57600080fd5b50610257610775565b005b34801561026557600080fd5b5061026e610822565b60405161027b91906132a5565b60405180910390f35b34801561029057600080fd5b506102ab60048036038101906102a69190612d63565b6108b4565b6040516102b89190613223565b60405180910390f35b3480156102cd57600080fd5b506102e860048036038101906102e39190612c83565b610939565b005b6102f2610a51565b005b34801561030057600080fd5b5061031b60048036038101906103169190612cbf565b610bb0565b005b34801561032957600080fd5b50610332610c2f565b60405161033f919061328a565b60405180910390f35b34801561035457600080fd5b5061035d610c42565b60405161036a91906135e7565b60405180910390f35b34801561037f57600080fd5b50610388610c4f565b60405161039591906135e7565b60405180910390f35b3480156103aa57600080fd5b506103c560048036038101906103c09190612b7d565b610c55565b005b3480156103d357600080fd5b506103ee60048036038101906103e99190612c83565b610cb5565b6040516103fb91906135e7565b60405180910390f35b34801561041057600080fd5b50610419610d5a565b005b34801561042757600080fd5b50610442600480360381019061043d9190612b7d565b610e98565b005b34801561045057600080fd5b5061046b60048036038101906104669190612d63565b610eb8565b60405161047891906135e7565b60405180910390f35b34801561048d57600080fd5b50610496610f4f565b6040516104a391906135e7565b60405180910390f35b3480156104b857600080fd5b506104d360048036038101906104ce9190612d63565b610f55565b6040516104e09190613223565b60405180910390f35b3480156104f557600080fd5b50610510600480360381019061050b9190612b18565b611007565b60405161051d91906135e7565b60405180910390f35b34801561053257600080fd5b5061053b6110bf565b60405161054891906135e7565b60405180910390f35b34801561055d57600080fd5b506105666110c5565b005b34801561057457600080fd5b5061057d61114d565b60405161058a9190613223565b60405180910390f35b34801561059f57600080fd5b506105a8611177565b6040516105b591906132a5565b60405180910390f35b3480156105ca57600080fd5b506105d3611209565b6040516105e091906135e7565b60405180910390f35b3480156105f557600080fd5b50610610600480360381019061060b9190612c47565b61120f565b005b34801561061e57600080fd5b5061063960048036038101906106349190612bcc565b611225565b005b34801561064757600080fd5b50610662600480360381019061065d9190612d63565b611287565b60405161066f91906132a5565b60405180910390f35b34801561068457600080fd5b5061069f600480360381019061069a9190612b41565b61132e565b6040516106ac919061328a565b60405180910390f35b3480156106c157600080fd5b506106dc60048036038101906106d79190612b18565b6113c2565b005b6106e66114ba565b005b60007f780e9d63000000000000000000000000000000000000000000000000000000007bffffffffffffffffffffffffffffffffffffffffffffffffffffffff1916827bffffffffffffffffffffffffffffffffffffffffffffffffffffffff1916148061075b575061075a82611703565b5b9050919050565b600c60149054906101000a900460ff1681565b61077d6117e5565b73ffffffffffffffffffffffffffffffffffffffff1661079b61114d565b73ffffffffffffffffffffffffffffffffffffffff16146107f1576040517f08c379a00000000000000000000000000000000000000000000000000000000081526004016107e8906134c7565b60405180910390fd5b6001600c60146101000a81548160ff02191690831515021790555061012c4261081a91906136a6565b600d81905550565b60606000805461083190613817565b80601f016020809104026020016040519081016040528092919081815260200182805461085d90613817565b80156108aa5780601f1061087f576101008083540402835291602001916108aa565b820191906000526020600020905b81548152906001019060200180831161088d57829003601f168201915b5050505050905090565b60006108bf826117ed565b6108fe576040517f08c379a00000000000000000000000000000000000000000000000000000000081526004016108f5906134a7565b60405180910390fd5b6004600083815260200190815260200160002060009054906101000a900473ffffffffffffffffffffffffffffffffffffffff169050919050565b600061094482610f55565b90508073ffffffffffffffffffffffffffffffffffffffff168373ffffffffffffffffffffffffffffffffffffffff1614156109b5576040517f08c379a00000000000000000000000000000000000000000000000000000000081526004016109ac90613527565b60405180910390fd5b8073ffffffffffffffffffffffffffffffffffffffff166109d46117e5565b73ffffffffffffffffffffffffffffffffffffffff161480610a035750610a02816109fd6117e5565b61132e565b5b610a42576040517f08c379a0000000000000000000000000000000000000000000000000000000008152600401610a3990613407565b60405180910390fd5b610a4c8383611859565b505050565b601160009054906101000a900460ff1615610aa1576040517f08c379a0000000000000000000000000000000000000000000000000000000008152600401610a9890613487565b60405180910390fd5b600c60149054906101000a900460ff168015610abe5750600d5442115b610afd576040517f08c379a0000000000000000000000000000000000000000000000000000000008152600401610af4906135c7565b60405180910390fd5b600e54600f5410610b43576040517f08c379a0000000000000000000000000000000000000000000000000000000008152600401610b3a906133e7565b60405180910390fd5b601054341015610b88576040517f08c379a0000000000000000000000000000000000000000000000000000000008152600401610b7f90613547565b60405180910390fd5b6001600f6000828254610b9b91906136a6565b92505081905550610bae33600f54611912565b565b610bb86117e5565b73ffffffffffffffffffffffffffffffffffffffff16610bd661114d565b73ffffffffffffffffffffffffffffffffffffffff1614610c2c576040517f08c379a0000000000000000000000000000000000000000000000000000000008152600401610c23906134c7565b60405180910390fd5b50565b601160009054906101000a900460ff1681565b6000600880549050905090565b60105481565b610c66610c606117e5565b82611930565b610ca5576040517f08c379a0000000000000000000000000000000000000000000000000000000008152600401610c9c90613567565b60405180910390fd5b610cb0838383611a0e565b505050565b6000610cc083611007565b8210610d01576040517f08c379a0000000000000000000000000000000000000000000000000000000008152600401610cf8906132c7565b60405180910390fd5b600660008473ffffffffffffffffffffffffffffffffffffffff1673ffffffffffffffffffffffffffffffffffffffff168152602001908152602001600020600083815260200190815260200160002054905092915050565b610d626117e5565b73ffffffffffffffffffffffffffffffffffffffff16610d8061114d565b73ffffffffffffffffffffffffffffffffffffffff1614610dd6576040517f08c379a0000000000000000000000000000000000000000000000000000000008152600401610dcd906134c7565b60405180910390fd5b6000610de061114d565b9050600047905060008273ffffffffffffffffffffffffffffffffffffffff1682604051610e0d9061320e565b60006040518083038185875af1925050503d8060008114610e4a576040519150601f19603f3d011682016040523d82523d6000602084013e610e4f565b606091505b5050905080610e93576040517f08c379a0000000000000000000000000000000000000000000000000000000008152600401610e8a906134e7565b60405180910390fd5b505050565b610eb383838360405180602001604052806000815250611225565b505050565b6000610ec2610c42565b8210610f03576040517f08c379a0000000000000000000000000000000000000000000000000000000008152600401610efa90613587565b60405180910390fd5b60088281548110610f3d577f4e487b7100000000000000000000000000000000000000000000000000000000600052603260045260246000fd5b90600052602060002001549050919050565b600e5481565b6000806002600084815260200190815260200160002060009054906101000a900473ffffffffffffffffffffffffffffffffffffffff169050600073ffffffffffffffffffffffffffffffffffffffff168173ffffffffffffffffffffffffffffffffffffffff161415610ffe576040517f08c379a0000000000000000000000000000000000000000000000000000000008152600401610ff590613447565b60405180910390fd5b80915050919050565b60008073ffffffffffffffffffffffffffffffffffffffff168273ffffffffffffffffffffffffffffffffffffffff161415611078576040517f08c379a000000000000000000000000000000000000000000000000000000000815260040161106f90613427565b60405180910390fd5b600360008373ffffffffffffffffffffffffffffffffffffffff1673ffffffffffffffffffffffffffffffffffffffff168152602001908152602001600020549050919050565b600f5481565b6110cd6117e5565b73ffffffffffffffffffffffffffffffffffffffff166110eb61114d565b73ffffffffffffffffffffffffffffffffffffffff1614611141576040517f08c379a0000000000000000000000000000000000000000000000000000000008152600401611138906134c7565b60405180910390fd5b61114b6000611c75565b565b6000600a60009054906101000a900473ffffffffffffffffffffffffffffffffffffffff16905090565b60606001805461118690613817565b80601f01602080910402602001604051908101604052809291908181526020018280546111b290613817565b80156111ff5780601f106111d4576101008083540402835291602001916111ff565b820191906000526020600020905b8154815290600101906020018083116111e257829003601f168201915b5050505050905090565b600d5481565b61122161121a6117e5565b8383611d3b565b5050565b6112366112306117e5565b83611930565b611275576040517f08c379a000000000000000000000000000000000000000000000000000000000815260040161126c90613567565b60405180910390fd5b61128184848484611ea8565b50505050565b6060611292826117ed565b6112d1576040517f08c379a00000000000000000000000000000000000000000000000000000000081526004016112c890613507565b60405180910390fd5b60006112db611f04565b905060008151116112fb5760405180602001604052806000815250611326565b8061130584611f96565b6040516020016113169291906131ea565b6040516020818303038152906040525b915050919050565b6000600560008473ffffffffffffffffffffffffffffffffffffffff1673ffffffffffffffffffffffffffffffffffffffff16815260200190815260200160002060008373ffffffffffffffffffffffffffffffffffffffff1673ffffffffffffffffffffffffffffffffffffffff16815260200190815260200160002060009054906101000a900460ff16905092915050565b6113ca6117e5565b73ffffffffffffffffffffffffffffffffffffffff166113e861114d565b73ffffffffffffffffffffffffffffffffffffffff161461143e576040517f08c379a0000000000000000000000000000000000000000000000000000000008152600401611435906134c7565b60405180910390fd5b600073ffffffffffffffffffffffffffffffffffffffff168173ffffffffffffffffffffffffffffffffffffffff1614156114ae576040517f08c379a00000000000000000000000000000000000000000000000000000000081526004016114a590613327565b60405180910390fd5b6114b781611c75565b50565b601160009054906101000a900460ff161561150a576040517f08c379a000000000000000000000000000000000000000000000000000000000815260040161150190613487565b60405180910390fd5b600c60149054906101000a900460ff1680156115275750600d5442105b611566576040517f08c379a000000000000000000000000000000000000000000000000000000000815260040161155d906135a7565b60405180910390fd5b600c60009054906101000a900473ffffffffffffffffffffffffffffffffffffffff1673ffffffffffffffffffffffffffffffffffffffff166306c933d8336040518263ffffffff1660e01b81526004016115c19190613223565b60206040518083038186803b1580156115d957600080fd5b505afa1580156115ed573d6000803e3d6000fd5b505050506040513d601f19601f820116820180604052508101906116119190612ce8565b611650576040517f08c379a000000000000000000000000000000000000000000000000000000000815260040161164790613307565b60405180910390fd5b600e54600f5410611696576040517f08c379a000000000000000000000000000000000000000000000000000000000815260040161168d906133e7565b60405180910390fd5b6010543410156116db576040517f08c379a00000000000000000000000000000000000000000000000000000000081526004016116d290613547565b60405180910390fd5b6001600f60008282546116ee91906136a6565b9250508190555061170133600f54611912565b565b60007f80ac58cd000000000000000000000000000000000000000000000000000000007bffffffffffffffffffffffffffffffffffffffffffffffffffffffff1916827bffffffffffffffffffffffffffffffffffffffffffffffffffffffff191614806117ce57507f5b5e139f000000000000000000000000000000000000000000000000000000007bffffffffffffffffffffffffffffffffffffffffffffffffffffffff1916827bffffffffffffffffffffffffffffffffffffffffffffffffffffffff1916145b806117de57506117dd82612143565b5b9050919050565b600033905090565b60008073ffffffffffffffffffffffffffffffffffffffff166002600084815260200190815260200160002060009054906101000a900473ffffffffffffffffffffffffffffffffffffffff1673ffffffffffffffffffffffffffffffffffffffff1614159050919050565b816004600083815260200190815260200160002060006101000a81548173ffffffffffffffffffffffffffffffffffffffff021916908373ffffffffffffffffffffffffffffffffffffffff160217905550808273ffffffffffffffffffffffffffffffffffffffff166118cc83610f55565b73ffffffffffffffffffffffffffffffffffffffff167f8c5be1e5ebec7d5bd14f71427d1e84f3dd0314c0f7b2291e5b200ac8c7c3b92560405160405180910390a45050565b61192c8282604051806020016040528060008152506121ad565b5050565b600061193b826117ed565b61197a576040517f08c379a0000000000000000000000000000000000000000000000000000000008152600401611971906133c7565b60405180910390fd5b600061198583610f55565b90508073ffffffffffffffffffffffffffffffffffffffff168473ffffffffffffffffffffffffffffffffffffffff1614806119c757506119c6818561132e565b5b80611a0557508373ffffffffffffffffffffffffffffffffffffffff166119ed846108b4565b73ffffffffffffffffffffffffffffffffffffffff16145b91505092915050565b8273ffffffffffffffffffffffffffffffffffffffff16611a2e82610f55565b73ffffffffffffffffffffffffffffffffffffffff1614611a84576040517f08c379a0000000000000000000000000000000000000000000000000000000008152600401611a7b90613347565b60405180910390fd5b600073ffffffffffffffffffffffffffffffffffffffff168273ffffffffffffffffffffffffffffffffffffffff161415611af4576040517f08c379a0000000000000000000000000000000000000000000000000000000008152600401611aeb90613387565b60405180910390fd5b611aff838383612208565b611b0a600082611859565b6001600360008573ffffffffffffffffffffffffffffffffffffffff1673ffffffffffffffffffffffffffffffffffffffff1681526020019081526020016000206000828254611b5a919061372d565b925050819055506001600360008473ffffffffffffffffffffffffffffffffffffffff1673ffffffffffffffffffffffffffffffffffffffff1681526020019081526020016000206000828254611bb191906136a6565b92505081905550816002600083815260200190815260200160002060006101000a81548173ffffffffffffffffffffffffffffffffffffffff021916908373ffffffffffffffffffffffffffffffffffffffff160217905550808273ffffffffffffffffffffffffffffffffffffffff168473ffffffffffffffffffffffffffffffffffffffff167fddf252ad1be2c89b69c2b068fc378daa952ba7f163c4a11628f55a4df523b3ef60405160405180910390a4611c7083838361231c565b505050565b6000600a60009054906101000a900473ffffffffffffffffffffffffffffffffffffffff16905081600a60006101000a81548173ffffffffffffffffffffffffffffffffffffffff021916908373ffffffffffffffffffffffffffffffffffffffff1602179055508173ffffffffffffffffffffffffffffffffffffffff168173ffffffffffffffffffffffffffffffffffffffff167f8be0079c531659141344cd1fd0a4f28419497f9722a3daafe3b4186f6b6457e060405160405180910390a35050565b8173ffffffffffffffffffffffffffffffffffffffff168373ffffffffffffffffffffffffffffffffffffffff161415611daa576040517f08c379a0000000000000000000000000000000000000000000000000000000008152600401611da1906133a7565b60405180910390fd5b80600560008573ffffffffffffffffffffffffffffffffffffffff1673ffffffffffffffffffffffffffffffffffffffff16815260200190815260200160002060008473ffffffffffffffffffffffffffffffffffffffff1673ffffffffffffffffffffffffffffffffffffffff16815260200190815260200160002060006101000a81548160ff0219169083151502179055508173ffffffffffffffffffffffffffffffffffffffff168373ffffffffffffffffffffffffffffffffffffffff167f17307eab39ab6107e8899845ad3d59bd9653f200f220920489ca2b5937696c3183604051611e9b919061328a565b60405180910390a3505050565b611eb3848484611a0e565b611ebf84848484612321565b611efe576040517f08c379a0000000000000000000000000000000000000000000000000000000008152600401611ef5906132e7565b60405180910390fd5b50505050565b6060600b8054611f1390613817565b80601f0160208091040260200160405190810160405280929190818152602001828054611f3f90613817565b8015611f8c5780601f10611f6157610100808354040283529160200191611f8c565b820191906000526020600020905b815481529060010190602001808311611f6f57829003601f168201915b5050505050905090565b60606000821415611fde576040518060400160405280600181526020017f3000000000000000000000000000000000000000000000000000000000000000815250905061213e565b600082905060005b60008214612010578080611ff99061387a565b915050600a8261200991906136fc565b9150611fe6565b60008167ffffffffffffffff811115612052577f4e487b7100000000000000000000000000000000000000000000000000000000600052604160045260246000fd5b6040519080825280601f01601f1916602001820160405280156120845781602001600182028036833780820191505090505b5090505b600085146121375760018261209d919061372d565b9150600a856120ac91906138c3565b60306120b891906136a6565b60f81b8183815181106120f4577f4e487b7100000000000000000000000000000000000000000000000000000000600052603260045260246000fd5b60200101907effffffffffffffffffffffffffffffffffffffffffffffffffffffffffffff1916908160001a905350600a8561213091906136fc565b9450612088565b8093505050505b919050565b60007f01ffc9a7000000000000000000000000000000000000000000000000000000007bffffffffffffffffffffffffffffffffffffffffffffffffffffffff1916827bffffffffffffffffffffffffffffffffffffffffffffffffffffffff1916149050919050565b6121b783836124b8565b6121c46000848484612321565b612203576040517f08c379a00000000000000000000000000000000000000000000000000000000081526004016121fa906132e7565b60405180910390fd5b505050565b612213838383612692565b600073ffffffffffffffffffffffffffffffffffffffff168373ffffffffffffffffffffffffffffffffffffffff1614156122565761225181612697565b612295565b8173ffffffffffffffffffffffffffffffffffffffff168373ffffffffffffffffffffffffffffffffffffffff16146122945761229383826126e0565b5b5b600073ffffffffffffffffffffffffffffffffffffffff168273ffffffffffffffffffffffffffffffffffffffff1614156122d8576122d38161284d565b612317565b8273ffffffffffffffffffffffffffffffffffffffff168273ffffffffffffffffffffffffffffffffffffffff1614612316576123158282612990565b5b5b505050565b505050565b60006123428473ffffffffffffffffffffffffffffffffffffffff16612a0f565b156124ab578373ffffffffffffffffffffffffffffffffffffffff1663150b7a0261236b6117e5565b8786866040518563ffffffff1660e01b815260040161238d949392919061323e565b602060405180830381600087803b1580156123a757600080fd5b505af19250505080156123d857506040513d601f19601f820116820180604052508101906123d59190612d3a565b60015b61245b573d8060008114612408576040519150601f19603f3d011682016040523d82523d6000602084013e61240d565b606091505b50600081511415612453576040517f08c379a000000000000000000000000000000000000000000000000000000000815260040161244a906132e7565b60405180910390fd5b805181602001fd5b63150b7a0260e01b7bffffffffffffffffffffffffffffffffffffffffffffffffffffffff1916817bffffffffffffffffffffffffffffffffffffffffffffffffffffffff1916149150506124b0565b600190505b949350505050565b600073ffffffffffffffffffffffffffffffffffffffff168273ffffffffffffffffffffffffffffffffffffffff161415612528576040517f08c379a000000000000000000000000000000000000000000000000000000000815260040161251f90613467565b60405180910390fd5b612531816117ed565b15612571576040517f08c379a000000000000000000000000000000000000000000000000000000000815260040161256890613367565b60405180910390fd5b61257d60008383612208565b6001600360008473ffffffffffffffffffffffffffffffffffffffff1673ffffffffffffffffffffffffffffffffffffffff16815260200190815260200160002060008282546125cd91906136a6565b92505081905550816002600083815260200190815260200160002060006101000a81548173ffffffffffffffffffffffffffffffffffffffff021916908373ffffffffffffffffffffffffffffffffffffffff160217905550808273ffffffffffffffffffffffffffffffffffffffff16600073ffffffffffffffffffffffffffffffffffffffff167fddf252ad1be2c89b69c2b068fc378daa952ba7f163c4a11628f55a4df523b3ef60405160405180910390a461268e6000838361231c565b5050565b505050565b6008805490506009600083815260200190815260200160002081905550600881908060018154018082558091505060019003906000526020600020016000909190919091505550565b600060016126ed84611007565b6126f7919061372d565b90506000600760008481526020019081526020016000205490508181146127dc576000600660008673ffffffffffffffffffffffffffffffffffffffff1673ffffffffffffffffffffffffffffffffffffffff168152602001908152602001600020600084815260200190815260200160002054905080600660008773ffffffffffffffffffffffffffffffffffffffff1673ffffffffffffffffffffffffffffffffffffffff168152602001908152602001600020600084815260200190815260200160002081905550816007600083815260200190815260200160002081905550505b6007600084815260200190815260200160002060009055600660008573ffffffffffffffffffffffffffffffffffffffff1673ffffffffffffffffffffffffffffffffffffffff16815260200190815260200160002060008381526020019081526020016000206000905550505050565b60006001600880549050612861919061372d565b90506000600960008481526020019081526020016000205490506000600883815481106128b7577f4e487b7100000000000000000000000000000000000000000000000000000000600052603260045260246000fd5b9060005260206000200154905080600883815481106128ff577f4e487b7100000000000000000000000000000000000000000000000000000000600052603260045260246000fd5b906000526020600020018190555081600960008381526020019081526020016000208190555060096000858152602001908152602001600020600090556008805480612974577f4e487b7100000000000000000000000000000000000000000000000000000000600052603160045260246000fd5b6001900381819060005260206000200160009055905550505050565b600061299b83611007565b905081600660008573ffffffffffffffffffffffffffffffffffffffff1673ffffffffffffffffffffffffffffffffffffffff168152602001908152602001600020600083815260200190815260200160002081905550806007600084815260200190815260200160002081905550505050565b6000808273ffffffffffffffffffffffffffffffffffffffff163b119050919050565b6000612a45612a4084613627565b613602565b905082815260208101848484011115612a5d57600080fd5b612a688482856137d5565b509392505050565b600081359050612a7f81613fd9565b92915050565b600081359050612a9481613ff0565b92915050565b600081519050612aa981613ff0565b92915050565b600081359050612abe81614007565b92915050565b600081519050612ad381614007565b92915050565b600082601f830112612aea57600080fd5b8135612afa848260208601612a32565b91505092915050565b600081359050612b128161401e565b92915050565b600060208284031215612b2a57600080fd5b6000612b3884828501612a70565b91505092915050565b60008060408385031215612b5457600080fd5b6000612b6285828601612a70565b9250506020612b7385828601612a70565b9150509250929050565b600080600060608486031215612b9257600080fd5b6000612ba086828701612a70565b9350506020612bb186828701612a70565b9250506040612bc286828701612b03565b9150509250925092565b60008060008060808587031215612be257600080fd5b6000612bf087828801612a70565b9450506020612c0187828801612a70565b9350506040612c1287828801612b03565b925050606085013567ffffffffffffffff811115612c2f57600080fd5b612c3b87828801612ad9565b91505092959194509250565b60008060408385031215612c5a57600080fd5b6000612c6885828601612a70565b9250506020612c7985828601612a85565b9150509250929050565b60008060408385031215612c9657600080fd5b6000612ca485828601612a70565b9250506020612cb585828601612b03565b9150509250929050565b600060208284031215612cd157600080fd5b6000612cdf84828501612a85565b91505092915050565b600060208284031215612cfa57600080fd5b6000612d0884828501612a9a565b91505092915050565b600060208284031215612d2357600080fd5b6000612d3184828501612aaf565b91505092915050565b600060208284031215612d4c57600080fd5b6000612d5a84828501612ac4565b91505092915050565b600060208284031215612d7557600080fd5b6000612d8384828501612b03565b91505092915050565b612d9581613761565b82525050565b612da481613773565b82525050565b6000612db582613658565b612dbf818561366e565b9350612dcf8185602086016137e4565b612dd8816139b0565b840191505092915050565b6000612dee82613663565b612df8818561368a565b9350612e088185602086016137e4565b612e11816139b0565b840191505092915050565b6000612e2782613663565b612e31818561369b565b9350612e418185602086016137e4565b80840191505092915050565b6000612e5a602b8361368a565b9150612e65826139c1565b604082019050919050565b6000612e7d60328361368a565b9150612e8882613a10565b604082019050919050565b6000612ea060168361368a565b9150612eab82613a5f565b602082019050919050565b6000612ec360268361368a565b9150612ece82613a88565b604082019050919050565b6000612ee660258361368a565b9150612ef182613ad7565b604082019050919050565b6000612f09601c8361368a565b9150612f1482613b26565b602082019050919050565b6000612f2c60248361368a565b9150612f3782613b4f565b604082019050919050565b6000612f4f60198361368a565b9150612f5a82613b9e565b602082019050919050565b6000612f72602c8361368a565b9150612f7d82613bc7565b604082019050919050565b6000612f9560128361368a565b9150612fa082613c16565b602082019050919050565b6000612fb860388361368a565b9150612fc382613c3f565b604082019050919050565b6000612fdb602a8361368a565b9150612fe682613c8e565b604082019050919050565b6000612ffe60298361368a565b915061300982613cdd565b604082019050919050565b600061302160208361368a565b915061302c82613d2c565b602082019050919050565b600061304460198361368a565b915061304f82613d55565b602082019050919050565b6000613067602c8361368a565b915061307282613d7e565b604082019050919050565b600061308a60208361368a565b915061309582613dcd565b602082019050919050565b60006130ad60148361368a565b91506130b882613df6565b602082019050919050565b60006130d0602f8361368a565b91506130db82613e1f565b604082019050919050565b60006130f360218361368a565b91506130fe82613e6e565b604082019050919050565b600061311660198361368a565b915061312182613ebd565b602082019050919050565b600061313960008361367f565b915061314482613ee6565b600082019050919050565b600061315c60318361368a565b915061316782613ee9565b604082019050919050565b600061317f602c8361368a565b915061318a82613f38565b604082019050919050565b60006131a2600d8361368a565b91506131ad82613f87565b602082019050919050565b60006131c560158361368a565b91506131d082613fb0565b602082019050919050565b6131e4816137cb565b82525050565b60006131f68285612e1c565b91506132028284612e1c565b91508190509392505050565b60006132198261312c565b9150819050919050565b60006020820190506132386000830184612d8c565b92915050565b60006080820190506132536000830187612d8c565b6132606020830186612d8c565b61326d60408301856131db565b818103606083015261327f8184612daa565b905095945050505050565b600060208201905061329f6000830184612d9b565b92915050565b600060208201905081810360008301526132bf8184612de3565b905092915050565b600060208201905081810360008301526132e081612e4d565b9050919050565b6000602082019050818103600083015261330081612e70565b9050919050565b6000602082019050818103600083015261332081612e93565b9050919050565b6000602082019050818103600083015261334081612eb6565b9050919050565b6000602082019050818103600083015261336081612ed9565b9050919050565b6000602082019050818103600083015261338081612efc565b9050919050565b600060208201905081810360008301526133a081612f1f565b9050919050565b600060208201905081810360008301526133c081612f42565b9050919050565b600060208201905081810360008301526133e081612f65565b9050919050565b6000602082019050818103600083015261340081612f88565b9050919050565b6000602082019050818103600083015261342081612fab565b9050919050565b6000602082019050818103600083015261344081612fce565b9050919050565b6000602082019050818103600083015261346081612ff1565b9050919050565b6000602082019050818103600083015261348081613014565b9050919050565b600060208201905081810360008301526134a081613037565b9050919050565b600060208201905081810360008301526134c08161305a565b9050919050565b600060208201905081810360008301526134e08161307d565b9050919050565b60006020820190508181036000830152613500816130a0565b9050919050565b60006020820190508181036000830152613520816130c3565b9050919050565b60006020820190508181036000830152613540816130e6565b9050919050565b6000602082019050818103600083015261356081613109565b9050919050565b600060208201905081810360008301526135808161314f565b9050919050565b600060208201905081810360008301526135a081613172565b9050919050565b600060208201905081810360008301526135c081613195565b9050919050565b600060208201905081810360008301526135e0816131b8565b9050919050565b60006020820190506135fc60008301846131db565b92915050565b600061360c61361d565b90506136188282613849565b919050565b6000604051905090565b600067ffffffffffffffff82111561364257613641613981565b5b61364b826139b0565b9050602081019050919050565b600081519050919050565b600081519050919050565b600082825260208201905092915050565b600081905092915050565b600082825260208201905092915050565b600081905092915050565b60006136b1826137cb565b91506136bc836137cb565b9250827fffffffffffffffffffffffffffffffffffffffffffffffffffffffffffffffff038211156136f1576136f06138f4565b5b828201905092915050565b6000613707826137cb565b9150613712836137cb565b92508261372257613721613923565b5b828204905092915050565b6000613738826137cb565b9150613743836137cb565b925082821015613756576137556138f4565b5b828203905092915050565b600061376c826137ab565b9050919050565b60008115159050919050565b60007fffffffff0000000000000000000000000000000000000000000000000000000082169050919050565b600073ffffffffffffffffffffffffffffffffffffffff82169050919050565b6000819050919050565b82818337600083830152505050565b60005b838110156138025780820151818401526020810190506137e7565b83811115613811576000848401525b50505050565b6000600282049050600182168061382f57607f821691505b6020821081141561384357613842613952565b5b50919050565b613852826139b0565b810181811067ffffffffffffffff8211171561387157613870613981565b5b80604052505050565b6000613885826137cb565b91507fffffffffffffffffffffffffffffffffffffffffffffffffffffffffffffffff8214156138b8576138b76138f4565b5b600182019050919050565b60006138ce826137cb565b91506138d9836137cb565b9250826138e9576138e8613923565b5b828206905092915050565b7f4e487b7100000000000000000000000000000000000000000000000000000000600052601160045260246000fd5b7f4e487b7100000000000000000000000000000000000000000000000000000000600052601260045260246000fd5b7f4e487b7100000000000000000000000000000000000000000000000000000000600052602260045260246000fd5b7f4e487b7100000000000000000000000000000000000000000000000000000000600052604160045260246000fd5b6000601f19601f8301169050919050565b7f455243373231456e756d657261626c653a206f776e657220696e646578206f7560008201527f74206f6620626f756e6473000000000000000000000000000000000000000000602082015250565b7f4552433732313a207472616e7366657220746f206e6f6e20455243373231526560008201527f63656976657220696d706c656d656e7465720000000000000000000000000000602082015250565b7f596f7520617265206e6f7420417574686f726973656400000000000000000000600082015250565b7f4f776e61626c653a206e6577206f776e657220697320746865207a65726f206160008201527f6464726573730000000000000000000000000000000000000000000000000000602082015250565b7f4552433732313a207472616e736665722066726f6d20696e636f72726563742060008201527f6f776e6572000000000000000000000000000000000000000000000000000000602082015250565b7f4552433732313a20746f6b656e20616c7265616479206d696e74656400000000600082015250565b7f4552433732313a207472616e7366657220746f20746865207a65726f2061646460008201527f7265737300000000000000000000000000000000000000000000000000000000602082015250565b7f4552433732313a20617070726f766520746f2063616c6c657200000000000000600082015250565b7f4552433732313a206f70657261746f7220717565727920666f72206e6f6e657860008201527f697374656e7420746f6b656e0000000000000000000000000000000000000000602082015250565b7f457863656564656420746865204c696d69740000000000000000000000000000600082015250565b7f4552433732313a20617070726f76652063616c6c6572206973206e6f74206f7760008201527f6e6572206e6f7220617070726f76656420666f7220616c6c0000000000000000602082015250565b7f4552433732313a2062616c616e636520717565727920666f7220746865207a6560008201527f726f206164647265737300000000000000000000000000000000000000000000602082015250565b7f4552433732313a206f776e657220717565727920666f72206e6f6e657869737460008201527f656e7420746f6b656e0000000000000000000000000000000000000000000000602082015250565b7f4552433732313a206d696e7420746f20746865207a65726f2061646472657373600082015250565b7f436f6e74726163742043757272656e746c792050617573656400000000000000600082015250565b7f4552433732313a20617070726f76656420717565727920666f72206e6f6e657860008201527f697374656e7420746f6b656e0000000000000000000000000000000000000000602082015250565b7f4f776e61626c653a2063616c6c6572206973206e6f7420746865206f776e6572600082015250565b7f4661696c656420746f2073656e64206574686572000000000000000000000000600082015250565b7f4552433732314d657461646174613a2055524920717565727920666f72206e6f60008201527f6e6578697374656e7420746f6b656e0000000000000000000000000000000000602082015250565b7f4552433732313a20617070726f76616c20746f2063757272656e74206f776e6560008201527f7200000000000000000000000000000000000000000000000000000000000000602082015250565b7f45746865722073656e74206973206e6f7420636f727265637400000000000000600082015250565b50565b7f4552433732313a207472616e736665722063616c6c6572206973206e6f74206f60008201527f776e6572206e6f7220617070726f766564000000000000000000000000000000602082015250565b7f455243373231456e756d657261626c653a20676c6f62616c20696e646578206f60008201527f7574206f6620626f756e64730000000000000000000000000000000000000000602082015250565b7f50726573616c6520456e64656400000000000000000000000000000000000000600082015250565b7f50726573616c65204e6f7420656e646564207965740000000000000000000000600082015250565b613fe281613761565b8114613fed57600080fd5b50565b613ff981613773565b811461400457600080fd5b50565b6140108161377f565b811461401b57600080fd5b50565b614027816137cb565b811461403257600080fd5b5056fea2646970667358221220c788f4246faec526c8e300b6a624d510a4aab63711ef885710c4a9bb2799b97364736f6c63430008040033",
  "linkReferences": {},
  "deployedLinkReferences": {}
}